:060000000C9453000C9467
:1000060000000C9468010C9400000C94FA000C9407
:1000160000000C9400000C9400000C9400000C945A
:1000260000000C9400000C9400000C9400000C944A
:1000360000000C9400000C9400000C9400000C943A
:1000460000000C9484010C9400000C94000010270E
:10005600E80364000A00010000100001100001001E
:100066000000000000000000000030303A30303A56
:100076003030002569430025690025695354440042
:1000860046554C4C00202020200080C00A00040069
:100096006600090060017000020072019000000015
:1000A600F894EE27ECBBF1E0FBBFEBBFE5BF8DE0BC
:1000B600A2E0BB27ED938A95E9F780E094E0A0E6FD
:1000C600ED930197E9F7E2E9F0E0859195910097C4
:1000D60061F0A591B59105901590BF01F0010590CD
:1000E6000D920197E1F7FB01F0CFEFE5EDBFE4E0FC
:1000F600EEBFC0E6D1E00C948000D398DB9AE3E033
:10010600E7B9E3EAE6B9A0E195D1889AE5E0E5BD6D
:10011600E2B5E860E2BDE9B7E064E9BF27D3A0E64F
:10012600B1E079D127D3E9E7F0E02BD38B98939A06
:100136007894E8E0E5BFEBB7E068EBBFEFEFE7BB2D
:10014600C29AE0E0E5BFEBB7E062EBBF00240A1419
:100156000B042CF4EAE0F0E0AE16BF060CF005C086
:10016600C498C598C69AC79A41C0AAE0B0E0AA1634
:10017600BB062CF0E4E1F0E0AE16BF060CF005C0BD
:10018600C498C598C698C79A31C0A4E1B0E0AA162B
:10019600BB062CF0EEE1F0E0AE16BF060CF005C093
:1001A600C498C598C698C79821C0AEE1B0E0AA1613
:1001B600BB062CF0E8E2F0E0AE16BF060CF005C078
:1001C600C49AC598C698C79811C0A8E2B0E0AA1606
:1001D600BB062CF0E2E3F0E0AE16BF060CF005C05D
:1001E600C49AC59AC698C79801C0B0CFFFCFD2D2DD
:1001F600F20131962F01ECE3F0E04E165F062CF08B
:1002060044245524F30131963F01ECE3F0E06E16E9
:100216007F062CF066247724F40131964F0113D023
:100226002BD0E2E0EA93A1E0B7D0EBE7F0E0C0D252
:10023600D201E5E0F0E051D3309721F49BD2EDE70F
:10024600F0E09FD279C0D201B9D2E0936A01D2011F
:10025600BAD2E0936901D301B1D2E0936D01D30123
:10026600B2D2E0936C01D401A9D2E0937001D4011B
:10027600AAD2E0936F010895EAE0EA93A0E08CD059
:10028600A9E6B1E0C8D0E7E0EA93A0E085D0ACE605
:10029600B1E0C1D06BD2AFE6B1E0BDD0A4E6B0E02C
:1002A60045D308951A931A2FE7B1E07EE12BE7B9FB
:1002B600369A3699FECFE4B1F5B1DF01EFEFF0E003
:1002C600F4D2ADE0B0E0E9D2DFC064D2F6013196F7
:1002D6007FD224F091D2E6E8F0E06AD291D21CF403
:1002E600C09AC198C7988CD214F08FD20CF403C070
:1002F600C098C19AC79889D21CF4C098C198C79A69
:100306001BC048D2F601319763D224F475D2EBE8CC
:10031600F0E04ED275D21CF4C09AC198C79870D23C
:1003260014F073D20CF403C0C098C19AC7986DD26A
:100336001CF4C098C198C79AE991EFBFF991E99169
:10034600B991A9919991899179916991F9901990A9
:10035600099018951A931A2FEBB3EF70AE2FE12F71
:10036600E07FEA2BEBBB8DE08A95F1F7DA9A8DE018
:100376008A95F1F7DA988DE08A95F1F785C0AA9308
:10038600A881E8DFE881E295E883A881E3DF85E8D4
:100396008A95F1F7219608951A930A931A2F0A81DE
:1003A600E12FF0E0EE58FE4FE081E00FAE2FE7DFE1
:1003B6000093760110937701198108812396089599
:1003C600A2E028D2ACE0DBDFA1E024D2E0E0E093BB
:1003D6007701E093760108951A931A2F1A3031F0B7
:1003E600E0917801A0917601AE1758F0E0E0EA932B
:1003F600A0917701AF5FA0937701CEDF1A3009F4A1
:1004060043C0E0917601EF5FE0937601D89AA12F81
:10041600B6DFD89839C028D29D01D9012F5F3F4F4A
:10042600EC911E2FE03019F0A12FD6DFF6CF23D2A4
:10043600249608951A931A2FEAB3E06FEABBD29A6C
:10044600D09AD19ADA98D898D99810937801E12F52
:10045600E058E0937401E12FE054E0937501A4E1C4
:10046600B0E064D2DBD1DAD1D9D1A0E273DF88EC77
:1004760090E00197F1F7A8E282DFA4E080DFA5E82B
:100486007EDFA6E07CDF9CDF19910895BA93AA93DC
:100496002697E8D110E0AC85BD85E0E0F0E0ED936D
:1004A600FC93EA89FB893196EA8BFB8B3197E491C1
:1004B6002E2FE03009F409C1E12FE03031F4253266
:1004C60011F411E001C0B1D1FFC0E130A1F4253231
:1004D60011F4ABD1F8C012E040E000E02D3211F487
:1004E60001E0F2C02B3211F44BE2EEC0203211F4DF
:1004F60040E2EAC002C0E23039F450E013E02033B3
:1005060011F40068E1C003C0E33009F0DDC0203318
:1005160010F02A3308F007C0AAE05A9F502DE22FA8
:10052600E0535E0FD1C0E22FE33639F485D1E88976
:10053600F989A481AA9386D1C6C0E33729F47CD170
:1005460087D1FBD01E2F07C0E03749F475D180D183
:1005560000D11E2F086002600F7730E038C0E43605
:1005660011F0E93611F4046002C0E53731F4E4E530
:10057600F0E0EE83FF8315E00CC0E83511F4086067
:1005860003C0E83709F09FC0EEE5F0E0EE83FF8395
:1005960014E002FF15C050D1A889B9891496ED91CF
:1005A600FD91EA87FB87AB85AA2322F46DD1EA8702
:1005B600FB874DE2403011F01F5F01C00B7F07C083
:1005C6003BD1A889B9891496A4D1EA87FB8700FD97
:1005D60010C0151770F407FF08C002FF04C00B7F98
:1005E600242F115001C020E301C020E21ED151503A
:1005F600F0CF312F01FF16C0303099F003FF06C04F
:10060600EE81FF812591EE83FF8305C0AE81BF8118
:100616002D91AE83BF8309D1503009F0515031502E
:10062600EBCF48C020E3EE81FF8177D1E887F987D9
:10063600EE81FF813296EE83FF83E885F985AA85F0
:10064600BB85AE17BF0750F02F5FA885B985EA8531
:10065600FB85EA1BFB0BEA87FB87EFCF2A3328F0E3
:1006660003FF02C0295F01C0295D04FD19C02133C3
:1006760020F4A885B985119709F409C0531710F01D
:1006860000FF01C011C020E207FF0AC020E300619D
:1006960002FF06C00B7F4A93D5D0503009F0515067
:1006A600C4D0503009F051503150A885B985129701
:1006B60008F0B8CF00FF07C0503029F05150E0E2F3
:1006C600EA93C0D0F9CF10E0ECCEAC85BD85ED91B4
:1006D600FD91CFD064960895C7D08D013C81A32F9C
:1006E6007BDED801ED91FD913196FE93EE93C3D05A
:1006F60025960895FF92F82E26971A930A93DE01FF
:100706001496BED08D01E0E0EC83ED83EE83EF839B
:10071600DE011896B5D0ED91FD91FA93EA931A93FE
:100726000A93EFE6F3E0FA93EA93DE011896AEDE5B
:10073600198108812896FF900895BA93AA93A991E2
:10074600B991EE27FF276D91662311F03196FBCF05
:100756000895BA93AA93AA27BB27E991F991059020
:10076600002011F01196FBCFFD010895E4E0EA9315
:10077600A0E012CEA3E096DD5F01E0E0EA93A1E0FF
:100786000BCEFA93EA93F50183D0CBD084E0B2DFA7
:10079600269608950A921A92FA926A937A938A93FF
:1007A6009A93AA93BA93EA93FA93EFB7EA930895C2
:1007B600FA93EA9380E09EDF22960895EAE0F0E05D
:1007C6008CD0E05D0895EAE0F0E082D0E05D089527
:1007D6006F01E6E0EA93A1E0DFDDE0E8F0E0FA93FE
:1007E600EA93F60155D09DD084E084DF2696E9E1B0
:1007F600F0E0CE16DF060895ECE0EA93A1E0CCCD5A
:10080600EAE0F0E0CE16DF060895E4E1F0E0EC154C
:10081600FD050895B4DDA3E0B0E088C0A0E39ADD4D
:1008260088EC90E00197F1F708952A93AD85BE858F
:10083600EF85F88909950895E889F9893497E88B51
:10084600F98B0895AD85BE85EF85F88909950895DC
:10085600A889B9891496ED91FD91EE83FF83AE8147
:10086600BF8108955A934A933A932A931A930A9307
:1008760008955D814C813B812A8119810881089503
:100886000024AF0DB01D0895F195E195F04008954F
:100896006F2F660F660B762F0895FA9FF02DEB9F4C
:1008A600F00DEA9FE02DF10D08950024112490E14A
:1008B600AA0FBB1F001C111C0E1A1F0A18F40E0EDD
:1008C6001F1E01C0A1609A9599F7FD01D0010895F8
:1008D60012D0EBDF0EF4D8DF0895E894B7FF04C01A
:1008E600B195A195B0406894F7FDCEDFDEDFFD013E
:1008F6000EF4CADF0895E894F7FF02C0C5DF6894D6
:10090600B7FF06C0B195A195B04000F8039400FA70
:100916000895ED91FC91119708950590F491E02DBD
:1009260008957A936A93FA93EA930895109639F0A4
:10093600A89580ED97E00197F1F71197C9F708950B
:00000001FF
